:020000040800F2
:1000000068130020E10A0008410B0008410B0008BA
:10001000410B0008410B0008410B000800000000E4
:10002000000000000000000000000000410B00087C
:10003000410B000800000000410B0008410B0008C4
:10004000410B0008410B0008410B0008410B000860
:10005000410B0008410B0008410B0008410B000850
:10006000410B0008410B0008410B0008410B000840
:10007000410B0008410B0008410B0008410B000830
:10008000410B0008410B0008410B0008410B000820
:10009000410B0008410B0008410B0008410B000810
:1000A000410B0008410B0008410B0008410B000800
:1000B000550D0008C90D0008410B0008410B000850
:1000C000410B0008410B0008410B0008410B0008E0
:1000D000410B0008410B00084D140008410B0008BB
:1000E000410B0008410B0008410B00080000000014
:1000F0000000000000000000000000000000000000
:1001000000000000000000005FF808F180B485B036
:1001100000AF786039600023FB817B681B88FB811E
:100120007B682E4A934213D07B682D4A93420FD0AE
:100130007B68B3F1804F0BD07B682A4A934207D08B
:100140007B68294A934203D07B68284A934208D1AE
:10015000FB8923F07003FB813B685A88FB891343BA
:10016000FB817B68224A93420CD07B68214A9342F0
:1001700008D0FB8923F44073FB813B68DA88FB8954
:100180001343FB817B68FA891A803B689A887B68F5
:100190009A853B681A887B681A857B680F4A934268
:1001A0000FD07B680E4A93420BD07B68124A934271
:1001B00007D07B68114A934203D07B68104A934270
:1001C00004D13B681B7A9AB27B681A867B6801224D
:1001D0009A8200BF1437BD4680BC7047002C014096
:1001E000003401400004004000080040000C0040C2
:1001F0000010004000140040004001400044014055
:100200000048014080B485B000AF786039600023B9
:100210007B810023FB810023BB817B681B8C9BB20D
:1002200023F001039AB27B681A847B681B8CFB81E4
:100230007B689B88BB817B681B8B7B817B8923F0E0
:1002400070037B817B8923F003037B813B681A88E1
:100250007B8913437B81FB8923F00203FB813B688D
:100260001A89FB891343FB813B685A88FB89134336
:10027000FB817B68244A93420FD07B68234A9342D8
:100280000BD07B68224A934207D07B68214A934275
:1002900003D07B68204A934223D1FB8923F00803D3
:1002A000FB813B685A89FB891343FB81FB8923F05F
:1002B0000403FB813B689A88FB891343FB81BB895C
:1002C00023F48073BB81BB8923F40073BB813B683B
:1002D0009A89BB891343BB813B68DA89BB89134385
:1002E000BB817B68BA899A807B687A891A833B686C
:1002F000DA887B689A867B68FA891A8400BF14378B
:10030000BD4680BC704700BF002C01400034014056
:1003100000400140004401400048014080B584B0E5
:1003200000AF786039600023FB810123BB813B680B
:100330005B88002B02D10223FB8101E00023FB81BB
:100340003B689B88012B02D10223BB8101E0012382
:10035000BB813B681B88002B1CD13B6859883B68DC
:100360009A883B681B89786800F016FA3B68DB883E
:100370001946786800F078F93B681B89BA89F989D1
:10038000786800F079FA3B68DB881946786800F0F5
:1003900087F91BE03B6859883B689A883B681B8952
:1003A000786800F069FA3B68DB881946786800F0E5
:1003B00077F93B681B89BA89F989786800F0ECF90C
:1003C0003B68DB881946786800F04EF900BF1037AB
:1003D000BD4680BD80B483B000AF78607B684FF6C7
:1003E000FF729A807B6800221A807B680022DA8084
:1003F0007B6800225A807B6800221A7200BF0C378B
:10040000BD4680BC704700BF80B483B000AF786049
:100410007B6800221A807B6800225A807B68002259
:100420009A807B680022DA807B6800221A817B68D0
:1004300000225A817B6800229A817B680022DA813F
:1004400000BF0C37BD4680BC704700BF80B483B08E
:1004500000AF78600B46FB70FB78002B08D07B6800
:100460001B889BB243F001039AB27B681A8007E0B5
:100470007B681B889BB223F001039AB27B681A80C9
:1004800000BF0C37BD4680BC704700BF80B483B04E
:1004900000AF78600B467B8013467B707B78002B27
:1004A00008D07B689B899AB27B8813439AB27B6899
:1004B0009A8109E07B689B899AB27B88DB439BB277
:1004C00013409AB27B689A8100BF0C37BD4680BC4E
:1004D000704700BF80B485B000AF78600B467B806A
:1004E0000023FB817B681B89FB81FB8923F0700360
:1004F000FB81FA897B881343FB817B68FA891A8127
:1005000000BF1437BD4680BC704700BF80B487B0C1
:1005100000AFF860084611461A4603467B810B4639
:100520003B811346FB800023FB820023BB82002318
:100530007B82FB681B89FB82FB681B8BBB82FB6891
:100540001B8C7B82FB8A23F00703FB82FA8A7B8960
:100550001343FB82BB8A23F4407323F00303BB8263
:10056000BB8A43F4807343F00103BB827B8A23F090
:1005700022037B82FB881B019AB23B8913439AB208
:100580007B8A13437B82FB68FA8A1A81FB68BA8AEA
:100590001A83FB687A8A1A8400BF1C37BD4680BC68
:1005A000704700BF80B483B000AF78600B467B809B
:1005B0007B681B889BB223F008039AB27B681A8081
:1005C0007B681B889AB27B8813439AB27B681A8037
:1005D00000BF0C37BD4680BC704700BF80B483B0FD
:1005E00000AF78600B467B807B681B899BB223F051
:1005F00007039AB27B681A817B681B899AB27B8851
:1006000013439AB27B681A8100BF0C37BD4680BC89
:10061000704700BF80B483B000AF78600B467B802A
:100620007B681B899BB223F080039AB27B681A8196
:100630007B681B899AB27B8813439AB27B681A81C4
:1006400000BF0C37BD4680BC704700BF80B483B08C
:1006500000AF78600B467B807B687A889A8500BF04
:100660000C37BD4680BC704780B483B000AF786063
:100670000B467B807B681B8B9BB223F00C039AB2EA
:100680007B681A837B681B8B9AB27B8813439AB270
:100690007B681A8300BF0C37BD4680BC704700BF23
:1006A00080B483B000AF78600B467B807B681B8B87
:1006B0009BB223F440639AB27B681A837B681B8BDE
:1006C0009AB27B881B029BB213439AB27B681A834F
:1006D00000BF0C37BD4680BC704700BF80B483B0FC
:1006E00000AF78607B689B8E9BB218460C37BD4686
:1006F00080BC704780B483B000AF78607B681B8F8C
:100700009BB218460C37BD4680BC704780B483B09E
:1007100000AF78607B689B8C9BB218460C37BD4657
:1007200080BC704780B485B000AF78600B467B809A
:100730000023FB730023BB8100237B817B681B8A22
:100740009AB27B881340BB817B689B899AB27B8875
:1007500013407B81BB89002B05D07B89002B02D005
:100760000123FB7301E00023FB73FB7B1846143766
:10077000BD4680BC704700BF80B483B000AF7860D6
:100780000B467B807B88DB439AB27B681A8200BF72
:100790000C37BD4680BC704780B487B000AFF860AE
:1007A000084611461A4603467B810B463B81134699
:1007B000FB800023BB820023FB82FB681B8C9BB267
:1007C00023F001039AB2FB681A84FB681B8BBB827F
:1007D000FB681B8CFB82BB8A23F0F303BB82FB8884
:1007E0001B019AB23B8913439AB2BB8A1343BB8263
:1007F000FB681C4A934213D0FB681B4A93420FD0FC
:10080000FB68B3F1804F0BD0FB68184A934207D0C6
:10081000FB68174A934203D0FB68164A93420BD1F8
:10082000FB8A23F00203FB827A89FB8A13439BB283
:1008300043F00103FB820AE0FB8A23F00A03FB82F8
:100840007A89FB8A13439BB243F00103FB82FB6866
:10085000BA8A1A83FB68FA8A1A8400BF1C37BD461D
:1008600080BC7047002C014000340140000400406F
:1008700000080040000C004080B487B000AFF86072
:10088000084611461A4603467B810B463B811346B8
:10089000FB800023BB820023FB8200237B82FB685A
:1008A0001B8C9BB223F010039AB2FB681A84FB687E
:1008B0001B8BBB82FB681B8CFB827B891B017B82B1
:1008C000BB8A23F440731B051B0DBB82FB881B03F3
:1008D0009AB2BB8A1343BB823B891B029AB2BB8A82
:1008E0001343BB82FB681C4A934213D0FB681B4A2C
:1008F00093420FD0FB68B3F1804F0BD0FB68184ACE
:10090000934207D0FB68174A934203D0FB68164A0C
:1009100093420BD1FB8A23F02003FB827A8AFB8A65
:1009200013439BB243F01003FB820AE0FB8A23F0DF
:10093000A003FB827A89FB8A13439BB243F0100326
:10094000FB82FB68BA8A1A83FB68FA8A1A8400BFA2
:100950001C37BD4680BC7047002C0140003401406C
:100960000004004000080040000C004080B500AFCB
:10097000154A154B1B6843F0010313601249124BD3
:100980005A68124B13404B600F4A0F4B1B6823F001
:10099000847323F4803313600B4A0B4B1B6823F4DE
:1009A00080231360084A084B5B6823F4FE035360FE
:1009B000054B4FF41F029A6000F00CF8044B4FF007
:1009C00000629A6000BF80BD001002400000FFF886
:1009D00000ED00E080B500AF00F002F800BF80BD80
:1009E00080B483B000AF00237B6000233B603A4AB1
:1009F000394B1B6843F480331360374B1B6803F497
:100A000000333B607B6801337B603B68002B03D184
:100A10007B68B3F5A06FF0D12F4B1B6803F4003354
:100A2000002B02D001233B6001E000233B603B68C8
:100A3000012B4BD1294A294B1B6843F0100313604B
:100A4000264A264B1B6823F003031360234A234BDB
:100A50001B6843F0020313601F4A1F4B5B6853601F
:100A60001D4A1D4B5B6853601B4A1B4B5B6843F47C
:100A700080635360184A184B5B6823F47C135360FF
:100A8000154A154B5B6843F4E8135360124A124B46
:100A90001B6843F08073136000BF0F4B1B6803F0AB
:100AA0000073002BF9D00C4A0B4B5B6823F0030357
:100AB0005360094A084B5B6843F00203536000BF70
:100AC000054B5B6803F00C03082BF9D100BF0C3712
:100AD000BD4680BC704700BF0010024000200240AD
:100AE00080B582B000AF114B7B60114B3B6007E0DB
:100AF0003B681A1D3A607A68111D796012681A60A5
:100B00003B680C4A9342F3D30B480C494FF0000268
:100B10008842B8BF40F8042BFADBFFF727FF00F04C
:100B200029FB00BF0837BD4680BD00BFFC8200081E
:100B300000000020800A0020800A0020680F0020AA
:100B400080B400AFFEE700BF80B489B000AF78602A
:100B500039600023FB6100233B610023BB6100235C
:100B6000FB6000237B610023BB603B68DB7803F004
:100B70000F03FB613B68DB7803F01003002B05D00B
:100B80003B689B781A46FB691343FB613B681B88F3
:100B9000DBB2002B44D07B681B687B610023BB6108
:100BA00038E00122BB6902FA03F3FB603B681B8853
:100BB0001A46FB6813403B613A69FB689A4226D1AA
:100BC000BB699B00FB600F22FB6802FA03F3BB606A
:100BD000BB68DB437A6913407B61FA69FB6802FA00
:100BE00003F37A6913437B613B68DB78282B05D1DB
:100BF0000122BB699A407B685A6108E03B68DB7858
:100C0000482B04D10122BB699A407B681A61BB69F9
:100C10000133BB61BB69072BC3D97B687A691A6052
:100C20003B681B88FF2B46D97B685B687B61002390
:100C3000BB613AE0BB690833012202FA03F3FB60AF
:100C40003B681B881A46FB6813403B613A69FB68A6
:100C50009A4227D1BB699B00FB600F22FB6802FA16
:100C600003F3BB60BB68DB437A6913407B61FA69BD
:100C7000FB6802FA03F37A6913437B613B68DB7814
:100C8000282B05D1BB69083301229A407B685A6141
:100C90003B68DB78482B05D1BB69083301229A40B9
:100CA0007B681A61BB690133BB61BB69072BC1D982
:100CB0007B687A695A6000BF2437BD4680BC7047A4
:100CC00080B483B000AF78607B684FF6FF721A8003
:100CD0007B6802229A707B680422DA7000BF0C37AE
:100CE000BD4680BC704700BF80B485B000AF78605F
:100CF0000B467B800023FB737B68DA687B8813409C
:100D0000002B02D00123FB7301E00023FB73FB7B6C
:100D100018461437BD4680BC704700BF80B483B00E
:100D200000AF78600B467B807A887B681A6100BFD1
:100D30000C37BD4680BC704780B483B000AF78608C
:100D40000B467B807A887B685A6100BF0C37BD46B2
:100D500080BC704780B500AF01214FF08040FFF7A5
:100D6000E1FC0346012B07D101214FF08040FFF742
:100D700003FD124B01221A7008214FF08040FFF74B
:100D8000D1FC0346012B07D108214FF08040FFF72B
:100D9000F3FC0B4B01221A7002214FF08040FFF749
:100DA000C1FC0346012B07D102214FF08040FFF721
:100DB000E3FC044B01221A7000BF80BDA80A00208A
:100DC000A90A0020AC0A002080B500AF0421044825
:100DD000FFF7D2FC034B01221A7000BF80BD00BF99
:100DE00000040040AD0A002080B58AB000AF0121A8
:100DF000012001F01FF90121042001F0FDF83B1D45
:100E00001846FFF75DFF1023FB712023BB803B1DBD
:100E100019462948FFF798FE07F11C031846FFF70B
:100E2000D9FA4FF6FF13BB830023FB83234B1B68C8
:100E30009BB2013B9BB23B8400237B8407F11C03E4
:100E400019464FF08040FFF761F907F10C0318468F
:100E5000FFF7DAFA7023BB810123FB81184B1B6873
:100E60009BB27B820023BB8207F10C0319464FF033
:100E70008040FFF7C7F901220A214FF08040FFF7B9
:100E800005FB08214FF08040FFF78CFB01214FF05C
:100E90008040FFF7DBFA1C233B7200237B720023A8
:100EA000BB720123FB7207F10803184601F0B8FA80
:100EB00000BF2837BD4680BD00080140580F002004
:100EC000240F002080B584B000AF0121022001F082
:100ED000B1F83B1D1846FFF77DFA0023FB804FF465
:100EE0007A43BB8042F210733B8100233B733B1D6E
:100EF00019460548FFF70AF901210348FFF7A6FA4A
:100F000000BF1037BD4680BD0004004080B500AF73
:100F100000214FF08040FFF799FA00210548FFF7C4
:100F200095FA00210448FFF791FA00F007F800BF96
:100F300080BD00BF000400400008004080B500AF45
:100F400020210248FFF7F8FE00BF80BD00080140E5
:100F500080B584B000AF0121012001F06BF83B1D8A
:100F60001846FFF737FA1023FB804FF47A43BB8013
:100F700042F210733B8100233B733B1D19464FF037
:100F80008040FFF7C3F801214FF08040FFF75EFA81
:100F900000BF1037BD4680BD80B586B000AF0121CF
:100FA000042001F029F80121012001F043F807F1A4
:100FB00014031846FFF784FE4023BB821023FB7501
:100FC00007F1140319461948FFF7BEFD07F108039E
:100FD0001846FFF7FFF900237B814FF6FF133B8193
:100FE00040F2CF73BB8107F1080319464FF08040F0
:100FF000FFF78CF8012201214FF08040FFF746FAFD
:1010000001214FF08040FFF721FA1C233B710023A0
:101010007B710023BB710123FB713B1D184601F05E
:10102000FFF900BF1837BD4680BD00BF0008014072
:1010300080B588B000AF0121082000F0DDFF01215C
:10104000042000F0F7FF07F11C031846FFF738FEF5
:101050004023BB831823FB770323BB7707F11C03D3
:1010600019461748FFF770FD00237B82154B1B685C
:101070009BB2013B9BB23B82134B1B689BB2BB8272
:101080000023FB8207F1100319461048FFF73EF8D2
:1010900060233B8001237B8000233B810C4B1B683A
:1010A0009BB2FB803B4619460848FFF7ABF801218D
:1010B0000648FFF7CBF900BF2037BD4680BD00BF13
:1010C000000C0140500F0020580F00200008004085
:1010D000240F002080B586B000AF0121022000F06F
:1010E000A9FF0121042000F087FF80233B81042316
:1010F000FB720323BB7207F1080319461B48FFF775
:1011000023FD0423BB810023FB8101233B820023B9
:101110007B820023BB8207F10C0319461448FFF7BA
:10112000FDF860211248FFF7D5F904211048FFF7B8
:1011300055FA80210E48FFF76DFA01210C48FFF7A0
:1011400085F9012204210A48FFF7A0F91D233B710C
:1011500000237B710123BB710123FB713B1D1846EA
:1011600001F05EF900BF1837BD4680BD00080140A0
:101170000004004080B500AF00F00AF9454800F0D7
:10118000A7F8454B1B889AB2444B1B889BB29A42E6
:1011900001D000F0BFF9424B1B78002B12D0202168
:1011A0004048FFF7A1FD0346002B04D020213D4815
:1011B000FFF7C2FD03E020213A48FFF7AFFD384BAF
:1011C00000221A70384B1B78002B09D0374800F0EA
:1011D0007FF820213348FFF7AFFD334B00221A7010
:1011E000334B1B78002B09D0324800F071F82021D6
:1011F0002C48FFF793FD2E4B00221A702E4B1B78C4
:10120000002BBED02D48FFF775FA0346184601F0B3
:1012100009FE02462A4B1A60294B1B684FF0000159
:10122000184601F0EBFF0346002B26D12348FFF7B9
:1012300055FA03461A46642303FB02F3184601F0ED
:10124000F5FD02461E4B1B681946104601F0F6FEDE
:1012500003461A461B4B1A601B4B1B68184601F0CD
:10126000E1FD0246164B1B681946104601F0E6FEEA
:1012700003461A46154B1A6007E0124B4FF0000266
:101280001A60124B4FF000021A600B4B00221A70CA
:1012900077E700BF387D00089C0A00209E0A0020E6
:1012A000A80A002000080140A90A0020687D000863
:1012B000AC0A0020747D0008AD0A00200004004044
:1012C000800A0020840A002000000020880A0020F4
:1012D00080B584B000AF7860294B1B88FB810FE09C
:1012E000FB895A1CFA8119467B685A1C7A601A7865
:1012F000244B5A54FB89B3F5007F01D10023FB81B5
:101300007B681B78002BEBD172B61D4B1B889AB201
:101310001D4B1B889BB29A4229D180211B4800F0AB
:10132000EBFF0346012B22D1154AFB891380164B94
:101330001B889BB25A1C91B2134A11801A46114B5A
:101340009B5CDBB29BB21946104800F0B3FF0E4B1A
:101350001B889BB2B3F5007F02D10B4B00221A8091
:10136000012240F22771094800F05CFF02E0044AC4
:10137000FB89138062B600BF1037BD4680BD00BF39
:10138000A00A0020200D0020A20A002000440040F6
:1013900080B586B000AF0121012000F02DFE0121B3
:1013A0004FF4003000F046FE0121042000F024FE3E
:1013B0000823BB820423FB750323BB7507F11403C9
:1013C00019462048FFF7C0FB0423BB820323BB75EB
:1013D0001823FB7507F1140319461A48FFF7B4FBED
:1013E0004FF416537B6000233B8100237B81002355
:1013F000BB8100233B820C23FB813B1D1946124815
:1014000000F036FE012240F227710F4800F00AFF7B
:10141000012240F225510C4800F004FF01210A4846
:1014200000F0E0FE26233B7000237B700023BB709E
:101430000123FB703B46184600F0F2FF00BF18374F
:10144000BD4680BD000801400044004098B500AF93
:1014500040F22551294800F06BFF0346002B1AD0BB
:10146000274B1B889BB21C46244800F035FF0346DF
:10147000DAB2244B1A55224B1B889BB201339AB225
:101480001F4B1A801E4B1B889BB2B3F5007F02D105
:101490001B4B00221A8040F22771184800F048FFC9
:1014A0000346002B27D0184B1B889AB2174B1B887A
:1014B0009BB29A4219D0154B1B889BB25A1C91B211
:1014C000124A11801A46124B9B5CDBB29BB2194642
:1014D0000A4800F0EFFE0D4B1B889BB2B3F5007F6E
:1014E00009D10A4B00221A8005E0002240F2277140
:1014F000024800F097FE00BF98BD00BF00440040C6
:101500009C0A0020200B0020A00A0020A20A002034
:10151000200D002080B500AF254B1B889AB2254BCB
:101520001B889BB29A4240D037E0224B1B889BB26B
:101530001A46214B9B5CDBB23B2B17D01F4B1B6821
:101540001C4A128892B211461B4A525CD1B21C4A04
:10155000D1541A4B1B680133184A1360174B1B6890
:10156000172B0ADD154B00221A6006E000F02CF85C
:1015700000F05CFB114B00221A600E4B1B889BB2E3
:1015800001339AB20B4B1A800A4B1B889BB2B3F5FE
:10159000007F02D3074B00221A80054B1B889AB2AA
:1015A000044B1B889BB29A42BFD100BF80BD00BFD5
:1015B0009C0A00209E0A0020200B0020A40A002084
:1015C000340F00200000000090B587B000AF052266
:1015D000A349A44801F06EFE0346002B05D1A248A2
:1015E000FFF776FEFFF76EFC16E305229F499D4844
:1015F00001F060FE0346002B05D19D48FFF768FE11
:10160000FFF784FC08E305229A49964801F052FE50
:101610000346002B05D19848FFF75AFEFFF7BCFCA4
:10162000FAE2052295498F4801F044FE0346002B5B
:1016300070D1052000F012FB914B00221A60914BF3
:1016400000221A60904B00221A6000237B614BE05D
:10165000844A7B6913441B78DBB2202B1AD08A4B57
:101660001B68002B16D1864B1B685A1C84490A60E4
:101670007C497A690A441278D1B2844AD1547B6990
:101680000133784AD35CDBB22C2B2AD17E4B01226A
:101690001A6026E0734A7B6913441B78DBB21A4652
:1016A0007B4B9A421DD0784B1B68012B19D16D4A98
:1016B0007B6913441B78DBB22C2B12D0694A7B69FF
:1016C00013441B78DBB2002B0BD06E4B1B685A1CEB
:1016D0006C490A6063497A690A441278D1B26D4A4A
:1016E000D1547B6901337B617B69172BB0DD69487D
:1016F00001F0B6FD03461A46674B1A60634801F0D5
:10170000AFFD03461A46654B1A60FFF7FFFBFFF774
:101710006BFB81E205226249524801F0CBFD034692
:10172000002B2FD15F48FEF7F1FF03461A465E4BB0
:101730001A604FF08040FEF7E9FF03461A465B4B04
:101740001A60594B1B681A4659495A4801F08CFDDA
:10175000564B1B681A465649574801F085FD5748B5
:10176000FFF7B6FD5348FFF7B3FD5548FFF7B0FD4F
:101770005448FFF7ADFD5048FFF7AAFD5048FFF76A
:10178000A7FD49E205225049364801F093FD034682
:10179000002B0CD14D48FFF79BFD4D48FFF798FDFE
:1017A0004C48FFF795FD4C48FFF792FD34E20522C7
:1017B0004A492C4801F07EFD0346002B05D14848DC
:1017C000FFF786FDFFF7C4FB26E2092245492548BD
:1017D00001F070FD0346002B05D14348FFF778FD6B
:1017E000FFF778FC18E241491E4801F00DFF03465F
:1017F000002B00F0ED80042000F030FA204B002296
:101800001A603B4B00221A601E4B00221A601E4BCE
:1018100000221A6000233B61BCE0124A3B6913447A
:101820001B78DBB2202B67D0174B1B68002B63D1D2
:10183000134B1B685A1C12490A600A493A690A4448
:101840001278D1B22B4AD1543B690133054AD35C9B
:10185000DBB22C2B40F09B800B4B01221A6096E0F0
:1018600014000020340F0020807D00085400002068
:10187000A07D00081C000020B87D0008B0000020FA
:101880008C0A0020940A0020980A0020040B0020F3
:10189000D87D0008F40A0020240F0020580F0020F3
:1018A00024000020000400401C0B0020000B00203E
:1018B000DC7D00088800002090000020E47D000806
:1018C000007E0008047E00082C000020207E000816
:1018D000747E0008E07E0008447F00083400002089
:1018E000C07F000874000020E07F00083C0000205A
:1018F000900A00202C0F0020A74A3B6913441B7854
:10190000DBB21A46A54B9A4221D0A54B1B68012B8E
:101910001DD1A14A3B6913441B78DBB22C2B16D096
:10192000A04B1B685A1C9F490A609B493A690A44AC
:101930001278D1B29C4AD1543B690133964AD35CA8
:10194000DBB22C2B23D1964B02221A601FE0924A65
:101950003B6913441B78DBB21A46904B9A4216D06F
:101960008F4B1B68022B12D18B4A3B6913441B78A7
:10197000DBB22C2B0BD08D4B1B685A1C8B490A6099
:1019800085493A690A441278D1B2894AD1543B69EF
:1019900001333B613B69172B7FF73FAF844801F070
:1019A0005FFC03461A46834B1A60834801F058FCDB
:1019B00003461A46814B1A607B4801F051FC0346EE
:1019C0001A467F4B1A60FFF7A1FAFFF731FB23E1BC
:1019D0007C49714801F018FE0346002B00F093800B
:1019E000052000F03BF9784B00221A606D4B002275
:1019F0001A606E4B00221A60694B00221A600023A5
:101A0000FB6044E0644AFB6813441B78DBB2202B84
:101A10001AD0634B1B68002B16D16B4B1B685A1CEA
:101A200069490A605C49FA680A441278D1B2624A8C
:101A3000D154FB680133584AD35CDBB22C2B23D141
:101A4000574B01221A601FE0534AFB6813441B786E
:101A5000DBB21A46514B9A4216D0514B1B68012BF0
:101A600012D14D4AFB6813441B78DBB22C2B0BD0F0
:101A70004C4B1B685A1C4B490A604749FA680A4498
:101A80001278D1B24A4AD154FB680133FB60FB683B
:101A9000172BB7DD4FF000034FF00004C7E9003407
:101AA000434801F0DDFB024613469B0013445B00F4
:101AB0001A46404B1A60404801F0D2FB02464FF4F0
:101AC0007A7303FB02F3184600F05EFE03460C46F1
:101AD000C7E90034D7E900232DA1D1E9000100F0C6
:101AE000E3FF03460C461846214601F0C5F80246BE
:101AF000324B1A60324B4FF47A721A60FFF706FAD3
:101B0000FFF796FA88E005223049234801F0D2FB1E
:101B10000346002B05D12E48FFF7DAFB00F06EF9E3
:101B20007AE007222B491C4801F0C4FB0346002B36
:101B300064D1294B1B68184600F038FE03460C465A
:101B40001A4623462549264801F08EFB254B1B6883
:101B5000184600F02BFE03460C461A4623461F4942
:101B6000214801F081FB2148FFF7B2FB1E48FFF737
:101B7000AFFB1F48FFF7ACFB1E48FFF7A9FB184857
:101B8000FFF7A6FB1C48FFF7A3FB45E0AFF300807F
:101B9000000000000094F140340F0020D87D0008C0
:101BA000980A0020900A0020040B0020940A0020CC
:101BB000F40A0020240F00202C0F0020500F0020DA
:101BC000580F0020440000208C0A002064000020F0
:101BD000FC7F00086C000020840A0020248000089C
:101BE0005C0F0020880A00200C0B002028800008D1
:101BF000388000084080000850800008082208490A
:101C0000084801F057FB0346002B02D100F040F8D2
:101C100002E00548FFF75CFB00BF1C37BD4690BDE6
:101C200080000020340F00205880000880B483B06A
:101C300000AF00237B6007E0074A7B681344002263
:101C40001A707B6801337B607B68172BF4DD00BF63
:101C50000C37BD4680BC7047340F002080B485B07F
:101C600000AF78600023FB6007E0084AFB6813447C
:101C700020221A70FB680133FB60FA687B689A4285
:101C8000F3DB00BF1437BD4680BC7047340F002023
:101C900080B500AF374B1B881AB2374B1A80374BD1
:101CA0001B881AB2364B1A80324B1B881BB29AB271
:101CB000314B1B881BB29BB2D31A9BB21AB2314B69
:101CC0001A802E4B1B881BB29AB22D4B1B881BB25D
:101CD0009BB2D31A9BB21AB22B4B1A80294B1B888A
:101CE0001BB29AB2284B1B881BB29BB213449BB207
:101CF0001AB2264B1A80244B1B881BB29AB2214B76
:101D00001B881BB29BB2D31A9BB21AB2204B1A800B
:101D10001E4B1B881BB21A461E4B1B6813441D4AE0
:101D200013601B4B1B881BB21A461B4B1B681344CA
:101D3000194A1360134B1B881BB21A46174B1B68BA
:101D40001344164A1360104B1B881BB21A46144BDF
:101D50001B681344124A13600C4B1B881BB21A46B3
:101D60001049114801F080FA1048FFF7B1FA00BF9E
:101D700080BD00BFB20A0020AE0A0020B40A0020D5
:101D8000B00A0020280F0020620F0020140B002052
:101D9000FA0A0020FC0A0020180B0020540F002033
:101DA0004C0F0020DC7D00089800002090000020EF
:101DB00080B500AF72B60B4B00221A800A4B00228E
:101DC0001A800A4B00221A60094B00221A60094B44
:101DD00000221A60084B00221A60FFF759FF62B612
:101DE00000BF80BDAE0A0020B00A0020540F0020C2
:101DF0004C0F0020FC0A0020180B002080B582B098
:101E000000AF0121042000F0F7F83B1D1846FEF753
:101E100057FF0423FB712023BB803B1D19461C4840
:101E2000FEF792FE4023BB803B1D19461848FEF783
:101E30008BFE0121012000F0FDF80121042000F0BB
:101E4000F9F80023002203214FF08040FEF75EFBEB
:101E50004FF6FF714FF08040FEF7F8FB00230022A1
:101E600003210C48FEF752FB4FF6FF710948FEF7BD
:101E7000EDFB01214FF08040FEF7E8FA0121054813
:101E8000FEF7E4FAFFF794FF00BF0837BD4680BDB8
:101E9000000801400008004080B487B000AF7860BF
:101EA00000237B6100233B610023FB600023BB60B8
:101EB0004C4B5B6803F00C037B617B69042B07D000
:101EC000082B09D0002B33D17B68474A1A6033E0D6
:101ED0007B68454A1A602FE0424B5B6803F470133D
:101EE0003B61404B5B6803F48033FB603B699B0CB8
:101EF00002333B61FB68002B06D13B693B4A02FB86
:101F000003F27B681A6017E0364B5B6803F400331A
:101F1000002B06D03B69354A02FB03F27B681A604E
:101F20000AE03B69304A02FB03F27B681A6003E077
:101F30007B682D4A1A6000BF2A4B5B6803F0F003F0
:101F40007B617B691B097B61294A7B6913441B7890
:101F5000DBB2BB607B681A68BB68DA407B685A609A
:101F6000204B5B6803F4E0637B617B691B0A7B6148
:101F70001F4A7B6913441B78DBB2BB607B685A68DD
:101F8000BB68DA407B689A60164B5B6803F4605369
:101F90007B617B69DB0A7B61154A7B6913441B7893
:101FA000DBB2BB607B685A68BB68DA407B68DA608A
:101FB0000C4B5B6803F440437B617B699B0B7B614B
:101FC0000C4A7B6913441B78DBB2BB607B68DA6820
:101FD000BB68B2FBF3F27B681A6100BF1C37BD46D9
:101FE00080BC70470010024000127A0000093D00DA
:101FF000C0000020D000002080B483B000AF786023
:102000000B46FB70FB78002B06D00949084B9A69F8
:102010007B6813438B6106E00549054B9A697B6831
:10202000DB4313408B6100BF0C37BD4680BC70475B
:102030000010024080B483B000AF78600B46FB70A4
:10204000FB78002B06D00949084BDA697B681343FB
:10205000CB6106E00549054BDA697B68DB43134039
:10206000CB6100BF0C37BD4680BC704700100240FA
:1020700080B58CB000AF786039600023FB6200232C
:10208000BB6200237B6200233B620023FB617B6811
:10209000FB617B681B8A9BB2FB62FA6A4CF6FF739A
:1020A0001340FB623B68DB881A46FB6A1343FB6202
:1020B000FB6A9AB27B681A827B689B899BB2FB623F
:1020C000FA6A4EF6F3131340FB623B689A883B684A
:1020D0001B8913439AB23B685B8913439BB21A4630
:1020E000FB6A1343FB62FB6A9AB27B689A817B6846
:1020F0009B8A9BB2FB62FA6A4FF6FF431340FB6276
:102100003B689B891A46FB6A1343FB62FB6A9AB2DF
:102110007B689A8207F108031846FFF7BDFEFB694A
:102120002E4A934202D17B69BB6201E03B69BB62EC
:102130007B689B899BB21BB2002B0CDABA6A1346F0
:102140009B0013449A001A443B681B685B00B2FB77
:10215000F3F37B620BE0BA6A13469B0013449A00C8
:102160001A443B681B689B00B2FBF3F37B627B6AFB
:102170001B4AA2FB03235B091B01FB62FB6A1B09D1
:10218000642202FB03F37A6AD31A3B627B689B8961
:102190009BB21BB2002B0CDA3B6ADB003233104AD5
:1021A000A2FB03235B0903F00703FA6A1343FB62F4
:1021B0000BE03B6A1B013233094AA2FB03235B0994
:1021C00003F00F03FA6A1343FB62FB6A9AB27B685F
:1021D0001A8100BF3037BD4680BD00BF00380140C6
:1021E0001F85EB5180B483B000AF78600B46FB7065
:1021F000FB78002B08D07B689B899BB243F400538B
:102200009AB27B689A8107E07B689B899BB223F432
:1022100000539AB27B689A8100BF0C37BD4680BCE0
:10222000704700BF80B487B000AF78600B467B80FA
:1022300013467B7000233B610023FB600023BB60DF
:1022400000237B617B687B617B88DBB25B09DBB24F
:102250003B617B8803F01F03FB600122FB6802FAED
:1022600003F3BB603B69012B03D17B690C337B61BA
:1022700009E03B69022B03D17B6910337B6102E0EB
:102280007B6914337B617B78002B06D07B697A698C
:102290001168BA680A431A6006E07B697A691168B6
:1022A000BA68D2430A401A6000BF1C37BD4680BCE2
:1022B000704700BF80B483B000AF78600B467B806E
:1022C0007B88C3F308039AB27B689A8000BF0C37FF
:1022D000BD4680BC704700BF80B483B000AF78605B
:1022E0007B689B889BB2C3F308039BB218460C37EC
:1022F000BD4680BC704700BF80B485B000AF786039
:102300000B467B800023FB737B681B889AB27B881B
:1023100013409BB2002B02D00123FB7301E000238A
:10232000FB73FB7B18461437BD4680BC704700BF6B
:1023300080B487B000AF78600B467B800023FB60E1
:1023400000237B610023BB600023FB747B88DBB22E
:102350005B09DBB2BB607B8803F01F037B6101225A
:102360007B6902FA03F37B61BB68012B07D17B68B1
:102370009B899BB21A467B6913407B6111E0BB6865
:10238000022B07D17B681B8A9BB21A467B691340DC
:102390007B6106E07B689B8A9BB21A467B6913408F
:1023A0007B617B881B0A9BB2FB600122FB6802FAFF
:1023B00003F3FB607B681B889BB21A46FB681340E3
:1023C000FB607B69002B05D0FB68002B02D001234A
:1023D000FB7401E00023FB74FB7C18461C37BD46F0
:1023E00080BC704780B485B000AF78600A4B1B6832
:1023F000002B02D1084B094A1A60074B1B68FB608F
:10240000054B1A687B681344034A1360FB6818463F
:102410001437BD4680BC7047BC0A0020680F0020FE
:1024200080B487B000AF786000237B6100233B61FC
:102430000F23FB607B68DB78002B3AD0274BDB68EF
:10244000DB4303F4E0631B0A7B617B69C3F1040394
:102450003B61FA687B6922FA03F3FB607B685B7877
:102460001A463B6902FA03F37B617B689B781A4644
:10247000FB6813407A6913437B617B691B017B61B5
:10248000174A7B681B787969C9B213440A4683F8F6
:102490000023134A7B681B785B09DBB218467B6814
:1024A0001B7803F01F03012101FA03F342F82030E7
:1024B0000FE00B497B681B785B09DBB218467B6831
:1024C0001B7803F01F0301229A4000F1200341F81A
:1024D000232000BF1C37BD4680BC704700ED00E0E4
:1024E00000E100E081F0004102E000BF83F0004322
:1024F00030B54FEA41044FEA430594EA050F08BF9F
:1025000090EA020F1FBF54EA000C55EA020C7FEA62
:10251000645C7FEA655C00F0E2804FEA5454D4EBDF
:102520005555B8BF6D420CDD2C4480EA020281EAA9
:10253000030382EA000083EA010180EA020281EAE1
:102540000303362D88BF30BD11F0004F4FEA013133
:102550004FF4801C4CEA113102D0404261EB410142
:1025600013F0004F4FEA03334CEA133302D05242C8
:1025700063EB430394EA050F00F0A780A4F1010484
:10258000D5F1200E0DDB02FA0EFC22FA05F28018BE
:1025900041F1000103FA0EF2801843FA05F35941A4
:1025A0000EE0A5F120050EF1200E012A03FA0EFC23
:1025B00028BF4CF0020C43FA05F3C01851EBE3714D
:1025C00001F0004507D54FF0000EDCF1000C7EEB6A
:1025D00000006EEB0101B1F5801F1BD3B1F5001FA8
:1025E0000CD349085FEA30004FEA3C0C04F10104C7
:1025F0004FEA445212F5800F80F09A80BCF1004FF0
:1026000008BF5FEA500C50F1000041EB045141EA71
:10261000050130BD5FEA4C0C404141EB010111F472
:10262000801FA4F10104E9D191F0000F04BF01461D
:102630000020B1FA81F308BF2033A3F10B03B3F1FB
:1026400020020CDA0C3208DD02F1140CC2F10C028B
:1026500001FA0CF021FA02F10CE002F11402D8BFE9
:10266000C2F1200C01FA02F120FA0CFCDCBF41EAB5
:102670000C019040E41AA2BF01EB0451294330BD84
:102680006FEA04041F3C1CDA0C340EDC04F1140461
:10269000C4F1200220FA04F001FA02F340EA030038
:1026A00021FA04F345EA030130BDC4F10C04C4F17E
:1026B000200220FA02F001FA04F340EA030029465E
:1026C00030BD21FA04F0294630BD94F0000F83F4A8
:1026D000801306BF81F480110134013D4EE77FEA8B
:1026E000645C18BF7FEA655C29D094EA050F08BFD7
:1026F00090EA020F05D054EA000C04BF19461046B8
:1027000030BD91EA030F1EBF0021002030BD5FEAFB
:10271000545C05D14000494128BF41F0004130BD23
:1027200014F580043CBF01F5801130BD01F0004577
:1027300045F0FE4141F470014FF0000030BD7FEAEA
:10274000645C1ABF194610467FEA655C1CBF0B46E5
:10275000024650EA013406BF52EA033591EA030FFC
:1027600041F4002130BD00BF90F0000F04BF0021F4
:10277000704730B54FF4806404F132044FF0000527
:102780004FF0000150E700BF90F0000F04BF0021A0
:10279000704730B54FF4806404F1320410F0004506
:1027A00048BF40424FF000013EE700BF42004FEA01
:1027B000E2014FEA31014FEA02701FBF12F07F437E
:1027C00093F07F4F81F06051704792F0000F14BF7B
:1027D00093F07F4F704730B54FF4607401F00045BF
:1027E00021F0004120E700BF50EA010208BF704716
:1027F00030B54FF000050AE050EA010208BF70470B
:1028000030B511F0004502D5404261EB41014FF473
:10281000806404F132045FEA915C3FF4DCAE4FF077
:1028200003025FEADC0C18BF03325FEADC0C18BF5E
:10283000033202EBDC02C2F1200300FA03FC20FAAF
:1028400002F001FA03FE40EA0E0021FA02F11444FC
:10285000C1E600BF70B54FF0FF0C4CF4E06C1CEA11
:1028600011541DBF1CEA135594EA0C0F95EA0C0F86
:1028700000F0DEF82C4481EA030621EA4C5123EAF9
:102880004C5350EA013518BF52EA033541F4801128
:1028900043F4801338D0A0FB02CE4FF00005E1FBDB
:1028A00002E506F00042E0FB03E54FF00006E1FB25
:1028B00003569CF0000F18BF4EF0010EA4F1FF0468
:1028C000B6F5007F64F5407404D25FEA4E0E6D41A8
:1028D00046EB060642EAC62141EA55514FEAC520B9
:1028E00040EA5E504FEACE2EB4F1FD0C88BFBCF535
:1028F000E06F1ED8BEF1004F08BF5FEA500E50F1E6
:10290000000041EB045170BD06F0004646EA0101AB
:1029100040EA020081EA0301B4EB5C04C2BFD4EBDD
:102920000C0541EA045170BD41F480114FF0000ED6
:10293000013C00F3AB8014F1360FDEBF002001F044
:10294000004170BDC4F10004203C35DA0C341BDCBE
:1029500004F11404C4F1200500FA05F320FA04F090
:1029600001FA05F240EA020001F0004221F00041C4
:1029700010EBD37021FA04F642EB06015EEA430E37
:1029800008BF20EAD37070BDC4F10C04C4F1200567
:1029900000FA04F320FA05F001FA04F240EA02001A
:1029A00001F0004110EBD37041F100015EEA430EEB
:1029B00008BF20EAD37070BDC4F1200500FA05F20B
:1029C0004EEA020E20FA04F301FA05F243EA02038A
:1029D00021FA04F001F0004121FA04F220EA020099
:1029E00000EBD3705EEA430E08BF20EAD37070BDDF
:1029F00094F0000F0FD101F00046400041EB0101BF
:102A000011F4801F08BF013CF7D041EA060195F0A0
:102A1000000F18BF704703F00046520043EB03035A
:102A200013F4801F08BF013DF7D043EA0603704747
:102A300094EA0C0F0CEA135518BF95EA0C0F0CD052
:102A400050EA410618BF52EA4306D1D181EA030198
:102A500001F000414FF0000070BD50EA410606BF92
:102A60001046194652EA430619D094EA0C0F02D1D7
:102A700050EA013613D195EA0C0F05D152EA03361C
:102A80001CBF104619460AD181EA030101F000413A
:102A900041F0FE4141F470014FF0000070BD41F083
:102AA000FE4141F4780170BD70B54FF0FF0C4CF45D
:102AB000E06C1CEA11541DBF1CEA135594EA0C0F7C
:102AC00095EA0C0F00F0A7F8A4EB050481EA030EC9
:102AD00052EA03354FEA013100F088804FEA0333B0
:102AE0004FF0805545EA131343EA12634FEA02227E
:102AF00045EA111545EA10654FEA00260EF000413F
:102B00009D4208BF964244F1FD0404F5407402D290
:102B10005B084FEA3202B61A65EB03055B084FEA21
:102B200032024FF480104FF4002CB6EB020E75EB1E
:102B3000030E22BFB61A754640EA0C005B084FEA46
:102B40003202B6EB020E75EB030E22BFB61A7546C3
:102B500040EA5C005B084FEA3202B6EB020E75EB0E
:102B6000030E22BFB61A754640EA9C005B084FEA86
:102B70003202B6EB020E75EB030E22BFB61A754693
:102B800040EADC0055EA060E18D04FEA051545EA82
:102B900016754FEA06164FEAC30343EA52734FEA2B
:102BA000C2025FEA1C1CC0D111F4801F0BD141EAA4
:102BB00000014FF000004FF0004CB6E711F4801F09
:102BC00004BF01430020B4F1FD0C88BFBCF5E06FE9
:102BD0003FF6AFAEB5EB030C04BFB6EB020C5FEAF9
:102BE000500C50F1000041EB045170BD0EF0004E4E
:102BF0004EEA113114EB5C04C2BFD4EB0C0541EA80
:102C0000045170BD41F480114FF0000E013C90E67C
:102C100045EA060E8DE60CEA135594EA0C0F08BF40
:102C200095EA0C0F3FF43BAF94EA0C0F0AD150EA3F
:102C300001347FF434AF95EA0C0F7FF425AF1046D2
:102C400019462CE795EA0C0F06D152EA03353FF4FA
:102C5000FDAE1046194622E750EA410618BF52EA77
:102C600043067FF4C5AE50EA41047FF40DAF52EA4B
:102C700043057FF4EBAE12E74A0011D212F50012C1
:102C800011D20DD56FF47873B3EB62520ED44FEAC4
:102C9000C12343F0004343EA505323FA02F0704744
:102CA0004FF00000704750EA013002D14FF0FF3082
:102CB00070474FF00000704780F0004002E000BF16
:102CC00081F0004142001FBF5FEA410392EA030F17
:102CD0007FEA226C7FEA236C6AD04FEA1262D2EB61
:102CE0001363C1BFD218414048404140B8BF5B4266
:102CF000192B88BF704710F0004F40F4000020F0FF
:102D00007F4018BF404211F0004F41F4000121F014
:102D10007F4118BF494292EA030F3FD0A2F101025E
:102D200041FA03FC10EB0C00C3F1200301FA03F19C
:102D300000F0004302D5494260EB4000B0F5000FBF
:102D400013D3B0F1807F06D340084FEA310102F17E
:102D50000102FE2A51D2B1F1004F40EBC25008BF30
:102D600020F0010040EA03007047490040EB0000FA
:102D700010F4000FA2F10102EDD1B0FA80FCACF129
:102D8000080CB2EB0C0200FA0CF0AABF00EBC25028
:102D900052421843BCBFD0401843704792F0000F16
:102DA00081F4000106BF80F400000132013BB5E769
:102DB0004FEA41037FEA226C18BF7FEA236C21D0DF
:102DC00092EA030F04D092F0000F08BF0846704744
:102DD00090EA010F1CBF0020704712F07F4F04D112
:102DE000400028BF40F00040704712F100723CBF25
:102DF00000F50000704700F0004343F0FE4040F44F
:102E0000000070477FEA226216BF08467FEA23630C
:102E10000146420206BF5FEA412390EA010F40F4F7
:102E2000800070474FF0000304E000BF10F0004343
:102E300048BF40425FEA000C08BF704743F096432A
:102E400001464FF000001CE050EA010208BF704745
:102E50004FF000030AE000BF50EA010208BF7047CC
:102E600011F0004302D5404261EB41015FEA010CE1
:102E700002BF84460146002043F0B64308BFA3F1D9
:102E80008053A3F50003BCFA8CF2083AA3EBC253BB
:102E900010DB01FA02FC634400FA02FCC2F12002DA
:102EA000BCF1004F20FA02F243EB020008BF20F011
:102EB0000100704702F1200201FA02FCC2F1200277
:102EC00050EA4C0021FA02F243EB020008BF20EA6C
:102ED000DC7070474FF0FF0C1CEAD0521EBF1CEA9A
:102EE000D15392EA0C0F93EA0C0F6FD01A4480EA88
:102EF000010C400218BF5FEA41211ED04FF0006371
:102F000043EA501043EA5111A0FB01310CF000409C
:102F1000B1F5000F3EBF490041EAD3715B0040EAC2
:102F2000010062F17F02FD2A1DD8B3F1004F40EB92
:102F3000C25008BF20F00100704790F0000F0CF065
:102F4000004C08BF49024CEA502040EA51207F3A29
:102F5000C2BFD2F1FF0340EAC250704740F4000004
:102F60004FF00003013A5DDC12F1190FDCBF00F0F5
:102F700000407047C2F10002410021FA02F1C2F1A3
:102F8000200200FA02FC5FEA310040F1000053EA3F
:102F90004C0308BF20EADC70704792F0000F00F08D
:102FA000004C02BF400010F4000F013AF9D040EA93
:102FB0000C0093F0000F01F0004C02BF490011F427
:102FC000000F013BF9D041EA0C018FE70CEAD15325
:102FD00092EA0C0F18BF93EA0C0F0AD030F0004CA5
:102FE00018BF31F0004CD8D180EA010000F0004059
:102FF000704790F0000F17BF90F0004F084691F017
:10300000000F91F0004F14D092EA0C0F01D1420250
:103010000FD193EA0C0F03D14B0218BF084608D119
:1030200080EA010000F0004040F0FE4040F4000063
:10303000704740F0FE4040F4400070474FF0FF0CF6
:103040001CEAD0521EBF1CEAD15392EA0C0F93EA3D
:103050000C0F69D0A2EB030280EA010C49024FEA8F
:10306000402037D04FF0805343EA111143EA101348
:103070000CF000408B4238BF5B0042F17D024FF400
:10308000000C8B4224BF5B1A40EA0C00B3EB510FDB
:1030900024BFA3EB510340EA5C00B3EB910F24BFC4
:1030A000A3EB910340EA9C00B3EBD10F24BFA3EB49
:1030B000D10340EADC001B0118BF5FEA1C1CE0D111
:1030C000FD2A3FF650AF8B4240EBC25008BF20F0C4
:1030D000010070470CF0004C4CEA50207F32C2BF18
:1030E000D2F1FF0340EAC250704740F400004FF0B5
:1030F0000003013A37E792F0000F00F0004C02BFE6
:10310000400010F4000F013AF9D040EA0C0093F0AF
:10311000000F01F0004C02BF490011F4000F013B09
:10312000F9D041EA0C0195E70CEAD15392EA0C0F71
:1031300008D142027FF47DAF93EA0C0F7FF470AFA9
:10314000084676E793EA0C0F04D14B023FF44CAFEC
:1031500008466EE730F0004C18BF31F0004CCAD181
:1031600030F000427FF45CAF31F000437FF43CAFBD
:103170005FE700BF4FF0FF3C06E000BF4FF0010CDF
:1031800002E000BF4FF0010C4DF804CD4FEA4002C1
:103190004FEA41037FEA226C18BF7FEA236C11D00B
:1031A00001B052EA530C18BF90EA010F58BFB2EBBE
:1031B000030088BFC81738BF6FEAE17018BF40F03E
:1031C000010070477FEA226C02D15FEA402C05D1F2
:1031D0007FEA236CE4D15FEA412CE1D05DF8040B77
:1031E000704700BF844608466146FFE70FB5FFF70A
:1031F000C9FF002848BF10F1000F0FBD4DF808EDC2
:10320000FFF7F4FF0CBF012000205DF808FB00BFB2
:103210004DF808EDFFF7EAFF34BF012000205DF80C
:1032200008FB00BF4DF808EDFFF7E0FF94BF012059
:1032300000205DF808FB00BF4DF808EDFFF7D2FF56
:1032400094BF012000205DF808FB00BF4DF808ED99
:10325000FFF7C8FF34BF012000205DF808FB00BF66
:103260000A22002100F07CBB0EB40146F0B54FF6F7
:10327000FF779CB021AC54F8042B0D4823466FF027
:103280000045029106914FF4027602A9006801946C
:10329000ADF81670ADF814600495079500F076FB54
:1032A000029B00221A701CB0BDE8F04003B07047CA
:1032B00000050020002A3FD040EA010313F0030379
:1032C000F0B425D1032A23D904680D68AC421FD17C
:1032D000043A33D0A4F1013525EA040414F0803F08
:1032E0002FD1071D0D1D0DE057F8043B0E68A3F10B
:1032F0000134B34224EA03040AD1043A1ED014F084
:10330000803F21D1032A2946384605F10405EBD830
:1033100003780C78013A9C420BD17AB114B915E0CC
:1033200062B173B110F8013F11F8014F013AA342A5
:10333000F6D0181BF0BC7047104670471046F0BC22
:1033400070471846F0BC70470020F3E72046F1E7CD
:103350002DE9F0414FF0010E744600254FF0FF3685
:103360002B198B4200EB06070DD23F5D10F803C00E
:10337000BC452DD21D460124C6EB030E2B198B42F2
:1033800000EB0607F1D34FF001084446C2F800E015
:1033900000254FF0FF372B19994200EB070E0ED98D
:1033A0001EF804E010F803C0F44518D91D460124A6
:1033B000C7EB03082B19994200EB070EF0D8013731
:1033C000701C874224BF3846C2F80080BDE8F081F7
:1033D0000CD04FF0010E2E4674467544C0E70CD059
:1033E0004FF001082F4644464544D4E7744509BFD1
:1033F000A64601341D460124B2E7444509BFA04654
:1034000001341D460124C6E72DE9F04FADF2144DFD
:10341000164605468B461046194603AA1C46FFF77A
:1034200097FF814603AB0DF20C4243F8044F9342E1
:10343000FBD14CB13246631E04A812F8011B40F8C0
:10344000213013F1FF33F8D203994A463144304614
:1034500003F022F9002871D109F1FF330093F3182A
:103460008246019323468046544658469A4608EBC6
:103470000A073A1A0021284403F0C8F8002858D156
:10348000002F56D0EB1913F8012C04AB53F822305F
:103490004BB124B1039A934201D2C2EB0A03984480
:1034A00000243846E3E74C45234638BF4B460AF133
:1034B000FF3E734513D208EB0302A85C16F803C065
:1034C0002A44844506EB030106D02EE011F801CF13
:1034D00012F8010F844528D101337345F6D34C45CA
:1034E000009980F08B80009B019808EB0302AB5C95
:1034F00000782A44984240F08180019B06EB040B3F
:1035000006E013F801ED12F8010D864504D161467D
:103510009B4501F1FF3CF4D101348C4270D8039CEF
:103520003846A044C4EB0A04A1E7C9F10102904463
:10353000B5E700200DF2144DBDE8F08FC9EB040390
:103540004B4538BF4B4609F1FF380133039306EB77
:1035500008035846CB4699464FF0000A0AEB040789
:103560003A1A0021284403F051F80028E1D1002F35
:10357000DFD0EB1913F8012C04AB53F82230A3BBB6
:10358000601E834515D20AEB0B0215F802E016F80F
:103590000B302A449E4506EB0B015B4606D027E024
:1035A00011F801CF12F801EFF44521D10133834224
:1035B000F6D3B8F1FF3F11D00AEB0802AB5C99F8E3
:1035C00000102A4499420FD14B4605E013F8010D33
:1035D00012F8011D884207D1B342F7D105EB0A006A
:1035E0000DF2144DBDE8F08F039B9A443846B5E7C1
:1035F000CBF1010292449A443846AFE749468BE743
:1036000005EB080096E700BF0378002B00F004816B
:103610002DE9F04F91F8008085B04446B8F1000FD5
:1036200016D0864601F1010C012704E0624612F82B
:10363000014B64B194469C4214BF002707F0010778
:103640001EF8013F002BF1D19CF800300BBB17B1E5
:1036500005B0BDE8F08F0E46054641460130C6EB89
:103660000C0403F0EDFB074698B1012CF0D02819AB
:10367000874294BFC7EB000B4FF0010B1F2C0CD9F6
:103680002346324659463846FFF7BEFE05B0BDE830
:10369000F08F002005B0BDE8F08F03AA2146304628
:1036A000FFF756FE0399804602463144304602F049
:1036B000F3FF002858D181460546B246584608F126
:1036C000FF330193F31800936619321A002138442E
:1036D00002F09CFF0028DCD1002EDAD0C84543461A
:1036E00038BF4B469C4212D95A19B85C1AF80310DD
:1036F0003A4488420AEB030E06D02DE01EF8010F73
:1037000012F8011F884227D101339C42F6D8019B51
:10371000C845194640F283800098EA18BB5C0078DF
:103720003A4498427BD1009B0AEB090B06E013F860
:1037300001CD12F801EDF44504D101465B4501F1DC
:10374000FF30F4D109F10109894557D8039B304670
:103750001D44C3EB0409B7E7C8F1010215441D4439
:103760004FF000093046AFE7C8EB0403434538BFCC
:10377000434608F1FF390133039306EB090358462A
:103780009A46BB46002567193A1A0021584402F0B0
:103790003DFF00287FF47DAF002F3FF47AAF444512
:1037A00015D908EB05021BF8020016F808305A4438
:1037B000984206EB0801434606D023E011F801EFDA
:1037C00012F8010F86451DD101339C42F6D8B9F19C
:1037D000FF3F12D005EB09021BF802309AF80010E7
:1037E0005A44994214D1534605E013F8010D12F8DA
:1037F000011D88420CD1B342F7D15F46781905B05C
:10380000BDE8F08FC8F1010215441D443846BAE7FF
:10381000039B38461D44B6E70B7813B97047414601
:1038200090E70020704700BF2DE9F84FDDF82890A1
:103830000F46804616461D468B4600E0A3465C4672
:10384000484614F801AB02F00DFC5044417801F0F9
:10385000080101F0FF0C0029F0D152462D2A61D059
:103860002B2A04BF9BF801200BF10204002D43D04A
:10387000102D65D0A946BCF1000F0CBF6FF0004AB7
:103880004FF0004ABAFBF9FE0021084609FB1EAAC8
:1038900005E029D009FB0030012114F8012BA2F129
:1038A0003003092B05D9A2F14103192B0AD8A2F143
:1038B00037039D420EDD4A1CEFD08645E9D24FF01A
:1038C000FF31EAE7A2F16103192B03D8A2F15703F4
:1038D0009D42F0DC4B1C15D0BCF1000F10D14EB155
:1038E000E1B93760BDE8F88F9A45D3DA70464FF0FA
:1038F000FF31D2E7BDE8F88F302A1AD00A25B9E7A0
:103900004042ECE7BCF1000F4FF022030CBF6FF018
:1039100000404FF00040C8F80030F6B1671E376035
:10392000BDE8F88F0BF102049BF801204FF0010C69
:103930009CE7237803F0DF03582B08D0082599E78C
:10394000302A97D1237803F0DF03582B92D14FF020
:10395000100962784D4602348DE7BDE8F88F00BF4C
:10396000084B70B51D68084E6C6B82B0002C08BF08
:103970003446134600940A4601462846FFF754FF92
:1039800002B070BD00050020040500202DE9F04FB5
:10399000C1B00C46099115460E930A9002F066FBE1
:1039A00003681846179303F0B3FAA38916901E060E
:1039B00003D52369002B01F05C8100231A46A84639
:1039C0000DF1C009DFF860A4129319930B932593AE
:1039D0002493CDF88C901492159298F800304446B8
:1039E000EBB1252B02D11AE0252B03D014F8013FAF
:1039F000002BF9D1C8EB04058DB1249B259A013326
:103A00002A44072BC9F80080C9F804502592249352
:103A100000F3328309F108090B9B2B440B932378A5
:103A2000002B00F0EA814FF0FF3B5D4600231A4671
:103A30008DF86F3019460C930793637804F10108F1
:103A400008F10108A3F12000582800F24586DFE8BC
:103A500010F0F30343064306FC0343064306430604
:103A60004306430643065900040443066600D00398
:103A70004306EC03BC05BC05BC05BC05BC05BC0588
:103A8000BC05BC05BC054306430643064306430686
:103A900043064306430643064306E205F70443068E
:103AA000F70443064306430643064205430643061E
:103AB0004A05430643064306430643067405430688
:103AC0004306CD0543064306430643064306430625
:103AD00043064306430643061D060E06F704F70495
:103AE000F70415060E0643064306A3044306A8057D
:103AF000AE046D000A04430612044306350443066F
:103B0000430670040E9C236818460C932346002835
:103B100003F104030E9306DA0C9B5B420C93079BA4
:103B200043F00403079398F8003089E7AB460E9AF8
:103B30000027079830217823BB4514688DF8701052
:103B400002F104024FF000058DF871308DF86F70AE
:103B500040F00201C0F23D8620F0800141F00201F8
:103B6000079154EA05010E921193AD4800F031819E
:103B700030AE230943EA0573290904F00F020D460C
:103B80001C46835C06F8013D54EA0503F1D130ABD5
:103B90009B1B0D930D9B5B45B8BF5B4608930023B1
:103BA000139317B1089B01330893079B13F002038B
:103BB0000F9302D0089B02330893079B13F08403F2
:103BC000109340F018810C9B089A9D1A002D40F329
:103BD0001281102D2599249A924F27DD1896484678
:103BE0001024B946099E2F460A9D04E0103F102F6D
:103BF00000F1080016DD01328A4B1031072A2591A9
:103C0000249280E81800F1DD23AA3146284603F00B
:103C1000ADF9002840F0F880103F102F30A825990A
:103C2000249AE8DC3D464F468146189E01326C18C6
:103C3000072A25942492C9F80070C9F8045000F3AB
:103C4000D0809DF86F7009F1080977B1249B013489
:103C500001330DF16F010122072B2594249389E88C
:103C6000060000F3208209F108090F9B6BB1249B29
:103C7000023401331CA90222072B2594249389E8DE
:103C8000060000F31C8209F10809109B802B00F04C
:103C90002C810D9BC3EB0B07002F33DD624A102FE5
:103CA000249B0F9222DD22464FF0100B0A9D099CA7
:103CB00004E0103F102F09F1080916DD013310321E
:103CC000072B2592249389E8000CF2DD23AA2146D4
:103CD000284603F04BF9002840F09680103F102F43
:103CE0000DF1C009259A249BE8DC144601330F9A94
:103CF0003C44072B2594249389E8840000F3C78172
:103D000009F10809079BDA0500F19080249B0D99C1
:103D100001330C44072B2594C9F80060C9F804103E
:103D2000249300F3E28109F10809079B590736D56E
:103D30000C9B089A9D1A002D31DD102D249B394FC4
:103D400022DD22461026DDF828B0099C04E0103D53
:103D5000102D09F1080916DD013332491032072B05
:103D60002592249389E84200F1DD23AA2146584692
:103D700003F0FCF8002847D1103D102D0DF1C009CB
:103D8000259A249BE8DC144601332C44072B259408
:103D90002493C9F80070C9F8045000F392840B9B77
:103DA0000C9A08998A42ACBF9B185B180B93002CA5
:103DB00040F05981002324930DF1C0090DE600273E
:103DC000BB458DF86F70C0F20E85079B23F0800312
:103DD0000793BBF1000F00F06C840024002500273E
:103DE000C6E623AA09990A9803F0C0F860B99DF8BD
:103DF0006F700DF1C009259C27E7259B23B10A9818
:103E000023AA099903F0B2F8099B9B8913F0400F8C
:103E10000B9B18BF4FF0FF33184641B0BDE8F08F41
:103E20009C800008BC80000868800008119B652BFE
:103E300040F39F80149815990022002303F07CFD25
:103E4000002800F06381249BAE4901330134012234
:103E5000072B2594249389E8060000F3538409F185
:103E600008091D9B129A934203DB079BDB077FF532
:103E70005CAF249B16990133179A0C44072B2594A9
:103E8000C9F80020C9F80410249300F3E58609F16D
:103E90000809129B5D1E002D7FF747AF9A4A102D2F
:103EA000249B0F9240F3178110260A9FDDF824B05F
:103EB00005E009F10809103D102D40F30C81013394
:103EC0001034072B25942493C9F800A0C9F8046086
:103ED000EFDD23AA5946384603F048F8002893D16D
:103EE0000DF1C009259C249BE5E70C9B089A9F1ABD
:103EF000002F7FF7CEAE844A102F249B0F922BDD2C
:103F00004A462146B946102537460A9C099E06E0D6
:103F1000A9F11009B9F1100F02F1080218DD0133FF
:103F20001031072B25912493C2F800A05560EFDDD6
:103F300023AA3146204603F019F800287FF464AF25
:103F4000A9F11009B9F1100F30AA2599249BE6DCDC
:103F50003E460C464F46914601330F9A3C44072B90
:103F60002594249389E8840000F32B8509F108093E
:103F70008FE6129B249D012B04F1010405F101053C
:103F800040F3E8840123072D2594C9F800602495A7
:103F9000C9F8043000F3F98409F10809169A0135CB
:103FA000179B1444072D25942495C9F80030C9F8AF
:103FB000042000F3F88409F10809002314981599E6
:103FC000002203F0B9FC129B002800F0EA805E1E7C
:103FD000002E40F3F5804C4B102E0F932CDDCDF8C6
:103FE00034801027B046DDF828B0099E06E0A8F11D
:103FF0001008B8F1100F09F108091ADD0135103465
:10400000072D25942495C9F800A0C9F80470EEDDA9
:1040100023AA3146584602F0A9FF00287FF4F4AEE7
:10402000A8F11008B8F1100F0DF1C009259C249DCE
:10403000E4DC4646DDF8348001350F9B3444072D1F
:104040002594249589E8480040F3B88023AA09996B
:104050000A9802F08BFF00287FF4D6AE259C249DA1
:104060000DF1C009ACE023AA09990A9802F07EFF7D
:1040700000283FF49FAEC7E623AA09990A9802F0E8
:1040800075FF00287FF4C0AE0DF1C009C4E423AA77
:1040900009990A9802F06AFF00287FF4B5AE0DF185
:1040A000C009259C2EE623AA09990A9802F05EFF12
:1040B00000287FF4A9AE0DF1C009259CD5E523AAFF
:1040C00009990A9802F052FF00287FF49DAE0DF185
:1040D000C009259CD9E501330F9A2C44072B259460
:1040E000249389E824007FF71EAE23AA09990A9831
:1040F00002F03CFF00287FF487AE259C0DF1C0093B
:1041000013E600BFB8800008688000081D9D002DE0
:1041100040F30E83139B129A9342A8BF1346002BC1
:104120001D460DDD249B2C440133072B2594C9F833
:104130000060C9F80450249300F31A8609F10809B5
:10414000139B002DA8BF5B1B002B1D4640F3A083D3
:10415000B94A102D249B0F9240F344852246102724
:10416000DDF828B0099C05E009F10809103D102D83
:1041700040F3378501331032072B25922493C9F879
:1041800000A0C9F80470EFDD23AA2146584602F0CA
:10419000EDFE00287FF438AE0DF1C009259A249B6E
:1041A000E4E7013B013501361C44072DC9F80060E6
:1041B00024952594C9F804303FF748AF09F1080960
:1041C000199A013514441FAB072D25942495C9F87D
:1041D0000420C9F800307FF7A6AD23AA09990A98F0
:1041E00002F0C4FE00287FF40FAE0DF1C009259C3B
:1041F0009BE598F8003008F101042A2B00F02E8787
:10420000A3F13000092898BF002500F2B28614F807
:10421000013B05EB850500EB4505A3F130000928BE
:10422000F5D945EAE575A0460CE4079B43F0800309
:10423000079398F8003003E498F8003000297FF4E1
:10424000FFAB01222021FFF7FBBB079B43F00103DB
:10425000079398F80030FFF7F3BB98F8003001227D
:104260002B21FFF7EDBB079B43F02003079398F842
:104270000030FFF7E5BB0E9AAB4616680025119398
:104280008DF86F50141D002E00F0F885BBF1000F63
:10429000C0F244855A462946304602F0B7F9002854
:1042A00000F02E86AB46831B0D9323EAE3730E9436
:1042B0000893CDF84CB09DF86F7072E41193AB4643
:1042C000002A40F0F386079A12F0200300F04381A1
:1042D0000E9C0027073424F0070303F10801BB45B7
:1042E0000E91D3E900458DF86F70C0F2C18222F0C3
:1042F0008003079354EA050300F04881002D08BFAE
:104300000A2CC0F0488130AE204629460A220023FC
:1043100003F082FB303206F8012D204629460023A7
:104320000A2203F079FB04460D4654EA0503EBD15B
:104330002DE41193AB46002A40F0B486079B3F481A
:104340009D0640F15D810E9C073424F0070303F1C4
:1043500008020E92D3E90045079A12F0010700F017
:10436000468254EA05033FF42AAD9DF84420002715
:104370008DF87120079A3023BB458DF870308DF889
:104380006F7042F00203C0F2A58522F0800343F073
:1043900002030793FFF7ECBB98F800306C2B00F09A
:1043A0005184079840F010000790FFF749BB119324
:1043B000AB46002A40F07E86079A12F0200300F0F8
:1043C000A0800E9C0027073424F0070303F10801A6
:1043D000BB450E91D3E900458DF86F700BDB22F0E1
:1043E0008003079354EA050306D1BBF1000F00F0E8
:1043F000B18500240025002730AEE20842EA45726C
:10440000E90804F007030D461446303354EA050268
:1044100006F8013DF1D1079AD1077FF5B8AB302BF3
:104420003FF4B5AB3022731E06F8012C30AAD21A25
:104430000D921E46FFF7AEBB688000089C80000806
:104440001193AB46002A40F02186079B0E9C1A0769
:1044500004F1070440F16C8324F0070303F1080220
:104460000E921A685B6814921593159B149D23F0A5
:104470000044284621464FF0FF32A94B03F08EFA44
:10448000002840F0CD82284621464FF0FF32A44B51
:1044900003F066FA002840F0C382149815990022B0
:1044A000002303F053FA002840F00E859DF86F704A
:1044B00007999C4E21F080019B4B07911199032293
:1044C0004FF0000B08924729D8BF1E460D92CDF839
:1044D0004CB0FFF766BB079B43F00803079398F8BF
:1044E0000030FFF7ADBA1193AB46002A40F0D685F5
:1044F000079B43F010030793079A12F020037FF401
:1045000060AF079911F0100200F068820E98BBF1BD
:10451000000F024604688DF86F3002F104024FF07C
:104520000005C0F2DD8421F08001079154EA050105
:104530000E923FF45AAF1F465EE71193AB46002A36
:1045400040F0A885079B43F010030793079A12F0E9
:1045500020037FF4BDAE079911F0100200F025830F
:104560000E98BBF1000F024604688DF86F3002F11F
:1045700004024FF00005C0F2A48421F080010791ED
:1045800054EA05010E921F467FF4B8AEBBF1000F4E
:1045900000F09080002440AE303406F8414DFFF723
:1045A000F6BA002A40F09E85079B9B0640F1CA821E
:1045B0000E9A134604330E930B9B1168DD171A46AF
:1045C0002B46C1E90023FFF708BAA3F1300000230E
:1045D0001C4618F8013B04EB840400EB4404A3F1EF
:1045E00030000928F5D90C94FFF72CBA1193AB468B
:1045F000002A40F07385079B4C489D063FF5A3AE0B
:10460000079BDC0640F1B5820E9A00251346043361
:1046100014680E93A0E61193AB46002A40F05A8529
:10462000079B43F010030793079B980640F1F18026
:104630000E9C073424F00704D4E9002304F1080198
:104640001D4614460E91002A73F10003C0F2F28059
:10465000BBF1000F9DF86F70C0F20A81079B23F039
:104660008003079354EA05037FF448AE8EE7119365
:10467000AB46002AD8D08DF86F10D5E7079B43F0E2
:104680004003079398F80030FFF7DAB90E991193B9
:104690000A68002301201F468DF86F309B46139354
:1046A0000B1D08908DF898200E930D9026AEFFF705
:1046B0007CBA5F464FF0000BCDF834B030AEFFF758
:1046C00069BA23AA09990A9802F050FC00287FF4DD
:1046D0009BAB259CFFF763BB1193002A40F0F68447
:1046E000119A002A3FF489AB002301211F4608914B
:1046F0008DF898208DF86F309B4613930D9126AE60
:10470000FFF753BA23AA09990A9802F02FFC002850
:104710007FF47AAB0DF1C009259CFFF7A2BB00BF67
:10472000FFFFEF7F7C800008788000088880000809
:10473000249BB849013301340122072B259424938B
:1047400089E8060000F3C18209F108092DB9129B1E
:104750001BB9079BDF077FF5E8AA249B1699013355
:10476000179A0C44072B2594C9F80020C9F80410A7
:10477000249300F3028409F108096D42002D40F3EF
:10478000E082A54A102D0F9240F3008322461027A5
:10479000DDF828B0099C05E009F10809103D102D4D
:1047A00040F3F38201331032072B25922493C9F88A
:1047B00000A0C9F80470EFDD23AA2146584602F094
:1047C000D5FB00287FF420AB0DF1C009259A249B6E
:1047D000E4E792480791119354EA05030E924FF0D3
:1047E00000077FF4C5A900240025FFF7C1B9BBF17C
:1047F000000F8DF86F70C0F2028222F080030793E1
:1048000054EA05037FF4B4A9BBF1000F7FF4E5AAD5
:104810004FE7079BD90640F1B9810E9A13461C68F1
:104820000433E51722460E932B46002A73F100034A
:10483000BFF60EAF64424FF02D0765EB4505BBF1A7
:10484000000F8DF86F70FFF659AD079B23F08003C2
:10485000079353E50E9ABBF1000F134614688DF8C9
:104860006F7003F104034FF0000580F2CA810E93CC
:1048700054EA05037FF442AD8DE623AA09990A980C
:1048800002F074FB00287FF4BFAA259C0DF1C0093B
:10489000139A1D9B32441746129A934249DB079A9A
:1048A000D50746D412990E44F51BCB1A9D42A8BFDA
:1048B0001D46002D2E460DDD249A2C440132072A78
:1048C0002594C9F80070C9F80450249200F3C782F7
:1048D00009F10809002EB4BF1D469D1B002D7FF76E
:1048E00024AA4D4A102D249B0F927FF7F4AB10267B
:1048F0000A9FDDF824B005E009F10809103D102DEC
:104900007FF7E9AB01331034072B25942493C9F8C2
:1049100000A0C9F80460EFDD23AA5946384602F02A
:1049200025FB00287FF470AA0DF1C009259C249B6B
:10493000E4E7249A1698013217990444072A25942B
:10494000C9F80010C9F80400249200F37B8209F131
:104950000809A7E7079BD8073FF514AB0123072DEC
:104960002594C9F800602495C9F804307FF726AC77
:1049700023AA09990A9802F0F9FA00287FF444AAB8
:104980000DF1C009259C249D1AE423AA09990A98CF
:1049900002F0ECFA00287FF437AA0DF1C009259C3B
:1049A000249DFFF7FBBA23AA09990A9802F0DEFAC0
:1049B00000287FF429AA0DF1C009259C249DFFF74A
:1049C000FCBA23AA09990A9802F0D0FA00287FF4C9
:1049D0001BAA0DF1C009259CFFF75BB9079911F0DF
:1049E000400700F018810E98BBF1000F03468DF8C8
:1049F0006F2003F1040304884FF00005C0F27281B8
:104A000021F08001079154EA05010E933FF4EDACCB
:104A10001746F1E4B8800008688000089C80000810
:104A2000149C22462046159C2346214602F0B6FFE0
:104A3000002840F0C482119BBBF1FF3F23F020030C
:104A40000D9300F04A82472B00F04F81079B43F4FF
:104A500080731093159B1F1E149B0893B7BF3B4692
:104A6000002303F100472D230F93119B662B00F0C9
:104A70001482462B00F00C810D9B21A8452B18BFFA
:104A80005D461EA908BF0BF10105049003911DA806
:104A900002213B460290089A019500910A9800F085
:104AA000BBFB119B0646672B40F03682079BDA075B
:104AB00040F172827419089839460022002302F0EE
:104AC0003BFF002840F05281219B9C4206D93021B7
:104AD0005A1C21921970219B9C42F9D89B1B12935E
:104AE0000D9B472B00F03B81119B652B40F32382EC
:104AF000119B662B1D9B139300F01F82139A129932
:104B00008A42C0F2F081079BD90700F1478222EA6E
:104B1000E2730D92672211920F9A002A40F0F480FE
:104B20000893109B934607939DF86F70FFF739B871
:104B300024F00704236814936368159304F10803B1
:104B40000E9392E4079BDF060BD4079B5E0608D505
:104B50000E9A136804320E92BDF82C201A80FEF7CC
:104B60003CBF0E9A136804320E920B9A1A60FEF73D
:104B700034BF079B0E9A13F0400F134600F0BE801F
:104B80000433148800250E93FFF7E6BB079B0E9AAB
:104B900013F0400F13463FF442AEB2F90040043325
:104BA000E5170E9322462B464DE5079911F0400775
:104BB0003FF450AE0E98BBF1000F03468DF86F2006
:104BC00003F1040304884FF00005C0F2948021F043
:104BD0008001079154EA05010E9317467FF48EABCE
:104BE000D4E4144601330F9A2C44072B25942493C4
:104BF00089E824003FF741AE09F1080948E60E9A1A
:104C0000EAE5079A0E9322F08002079254EA050221
:104C10007FF474ABBAE40E9ABBF1000F134614682C
:104C20008DF86F7003F104034FF000055ADB079A0B
:104C30000E9322F08002079254EA05027FF4DCAB67
:104C4000FFF7D3BB079B08F1010843F0200307934C
:104C500098F80030FEF7F4BE23AA09990A9802F0EA
:104C600085F900287FF4D0A80DF1C009259CFFF735
:104C700010B940210A9801F007FA099A10601061F2
:104C8000002800F0F981099A40235361FEF795BE90
:104C900021A81EA9049003911DA803210290089A3F
:104CA0003B46CDF804B000910A9800F0B5FA5D4695
:104CB0000646119B7419462B7FF4FDAE3378302BDA
:104CC00000F092811D9D2C44F5E623AA09990A98CB
:104CD00002F04CF900287FF497A80DF1C0091D9D42
:104CE000259C33E50E93FFF786BBBBF1000F08BF91
:104CF0004FF0010BAAE60E931746B9E5043314688A
:104D000000250E93FFF728BB0893109B2D270793D0
:104D10008DF86F704FF0000BFEF744BF304602F085
:104D2000F7F8AB460346FFF7BFBA23AA09990A98DA
:104D300002F01CF900287FF467A8259C249B0DF144
:104D4000C009129901330C44072B25942493C9F808
:104D50000060C9F804107EF7E6AFFFF7C6B91D9BE7
:104D6000DD1C1FDB9B451DDB1393C7E62346B5E621
:104D700023AA09990A9802F0F9F800287FF444A8B8
:104D80000DF1C009259CFFF7DBB9144601330F9ADA
:104D90002C44072B2594249389E82400C5DC09F1D1
:104DA0000809CEE7119A023A1192013B9DF844207E
:104DB000002B1D93B8BF5B428DF87C20B4BF2D2221
:104DC0002B22092B8DF87D2040F3F1800DF18B0013
:104DD0000446BA4A82FB0321DA17C2EBA10101EBB8
:104DE0008102A3EB4202303209290B4604F8012D5F
:104DF000EFDC21463033DAB201F8012D884240F26F
:104E000042810DF17E01234601E013F8012B984207
:104E100001F8012BF9D1431C1B1B0DF17E02134439
:104E20001FAA9B1A129A1993012A13440D9340F357
:104E3000FA800D9B169A134400220D93139223EAD5
:104E4000E37369E623AA09990A9802F08FF800280B
:104E50007EF4DAAF0DF1C0091D9B259C22E523AA43
:104E600009990A9802F082F800287EF4CDAF1D9BC4
:104E7000129A259CD31A0DF1C0092BE55B46062B2F
:104E800028BF06230D9323EAE373B34637461396F0
:104E90000E9408938A4EFEF784BE21A81EA90490A2
:104EA00003911DA803210290089A3B46CDF804B057
:104EB00000910A9800F0B0F95D46064600EB0B043D
:104EC000FCE60E921F46D3E42D231F468DF86F306B
:104ED000FFF7EEBA0793FEF74BBE4FF0060BB5E5B2
:104EE0000E92FFF788BA169A129B1344139A0D93E9
:104EF000002A40F39080672223EAE37311920BE6C5
:104F00002BEAEB73CDF834B0089383460E941390DC
:104F10009DF86F70FEF745BE119B472B7FF4CAAD1D
:104F2000079BDB073FF5C5AE219B9B1B12930D9B97
:104F3000472B3FF414AF1D9B37E7002B7DDDBBF102
:104F4000000F5FD1079AD4075CD41A4623EAE373B3
:104F50000D92E1E5079B5F46DB0705D540AE3023A8
:104F600006F8413DFEF713BECDF834B030AEFEF783
:104F700011BEA0460025FEF765BD23AA09990A982F
:104F800001F0F4FF00287EF43FAF0DF1C0091D9D34
:104F9000259C249BFFF7F1BB219B9FE5169A139B51
:104FA000134467220D93119223EAE373B4E530337F
:104FB00030228DF87F308DF87E2020AB30E70799C6
:104FC000404E21F08001404B0791119903224FF090
:104FD000000B08924729D8BF1E460D92CDF84CB061
:104FE0009DF86F70FEF7DDBD08983946002200235A
:104FF00002F0A2FC00287FF465AEC5F101051D9505
:105000002C4458E5139B169A9D1805EB0B030D9342
:1050100023EAE37380E5139B0D9AC3F101031A445D
:1050200013460D9267E7079B13F001037FF401AF6E
:1050300013930D9B23EAE3736EE5BBF1000F02D1DE
:10504000079BD80707D5169B5D1C05EB0B030D933B
:1050500023EAE37360E501230D935DE50E9898F86C
:10506000013005680430002D0E90A046BEF6E8AC75
:105070004FF0FF35FEF7E4BC0A9A0C2313604FF0A3
:10508000FF30FEF7CABE0DF17E03C9E68DF86F1042
:10509000FFF7DBB98DF86F10FFF754BA8DF86F107A
:1050A000FFF726BA8DF86F10FFF748B98DF86F102B
:1050B000FFF709B98DF86F10FFF77EB9676666666E
:1050C000B080000884800008808000088DF86F1090
:1050D000FFF706BB8DF86F10FFF7A2BA8DF86F10BF
:1050E000FFF789BA8DF86F10FFF75EBA2DE9F04F20
:1050F00003690F6983B09F4200F38980013F01F18A
:10510000140600F1140A56F827305AF82720013304
:10511000B2FBF3F8BB00009306EB03095344019381
:10512000B8F1000F3BD000231C46B446D6465CF8CD
:1051300004BBDEF800501FFA8BF208FB02324FEA84
:105140001B4B130C08FB0B3392B2A41A1FFA83FB00
:10515000AAB22244CBEB154404EB224492B242EAB9
:105160000442E1454EF8042B4FEA24444FEA13432E
:10517000DDD2009B5AF803308BB9019C231F9A455E
:105180000CD254F8043C4BB9A4F1080302E01A68AD
:10519000043B1AB99A4507F1FF37F8D30761044673
:1051A00001F034FD00282EDB00235546194608F196
:1051B000010856F8042B2B6890B2081A120C99B209
:1051C000C2EB1343421803EB224392B242EA03427A
:1051D000B14545F8042B4FEA2341EAD25AF827207B
:1051E0000AEB87037AB91A1F92450BD253F8042CA5
:1051F00042B9083B02E01A68043B1AB99A4507F124
:10520000FF37F8D32761404603B0BDE8F08F002098
:1052100003B0BDE8F08F00BF2DE9F04F016C99B0ED
:10522000814692469B46259C49B1426C012393409E
:105230008B604A6001F004FB0023C9F84030BBF1E9
:10524000000FD84633DB00232360A34B1A4608EA3D
:105250000303934214D0002200235046594602F023
:105260006BFB054648B3249A01231360269B002B51
:1052700000F0C58099481860013819B0BDE8F08F7A
:1052800042F20F73249A1360BAF1000F00F0A2806B
:105290009348269B002BF0D0C378002B00F0B18000
:1052A00000F10803269A136019B0BDE8F08F0123BE
:1052B0002BF000482360C346C7E716AA17AB01923C
:1052C000009352465B46484601F054FD5FEA18548D
:1052D000099040F08880169D179C2C4404F23243BC
:1052E000202B40F38A82C3F1400304F2124008FAF3
:1052F00003F82AFA00F040EA0800FDF735FA012326
:10530000013CA1F1F8710F930022764BFDF7EEF806
:105310006BA3D3E90023FDF79DFA6BA3D3E9002328
:10532000FDF7E6F8064620460F46FDF72DFA68A37E
:10533000D3E90023FDF78EFA02460B463046394684
:10534000FDF7D6F806460F4602F03EFB002203901A
:1053500000233046394602F0F9FA002840F029824D
:10536000039E162E00F222825F49524601EBC601CF
:105370005B46D1E9000102F007FB002800F0428201
:10538000731E039300230D932C1B631E049300F1E3
:105390002B8200230693039B002BC0F21C82049AED
:1053A0000C9311461944002304910B93229B092B63
:1053B00029D8052B40F35286043B22930025229BDB
:1053C000023B032B00F22F86DFE813F027032002B5
:1053D00032035304424B454AC8F31300002814BF5C
:1053E0001846104655E7CBF3130343F07F510F9552
:1053F0005046A4F2FF3441F44011169D84E73C4826
:105400003BE7C31C4EE70021C9F8441048462291EF
:1054100001F0EEF94FF0FF33229A07930E93012328
:1054200008902392C9F840000A93179B002BC0F202
:10543000CA80039A0E2A00F3C6802B4B03EBC203EB
:1054400018CBCDE90434239B002BC0F2FC825646D6
:105450005F46DDE904AB304652465B463946FDF710
:1054600023FB02F0B1FA0446FDF78EF952465B4683
:10547000FDF7F0F902460B4630463946FDF736F89F
:10548000079E089F04F13005012E3D7002460B4631
:1054900007F101055ED00022164BFDF7DBF9002273
:1054A000002306460F4602F047FA002878D1CDF8CF
:1054B0001890DDF81CA0DDF820B0DDE9048928E0B3
:1054C00061436F63A787D23FB3C8608B288AC63F0A
:1054D000FB799F501344D33F0000F07FB980000850
:1054E000D88000080000F83FF0800008CC80000859
:1054F000B8800008000024400022C34BFDF7AAF941
:105500000022002306460F4602F016FA002840F05B
:10551000B38342464B4630463946FDF7C5FA02F0A2
:1055200053FA0446FDF730F942464B46FDF792F92F
:1055300002460B4630463946FCF7D8FF04F13006E8
:1055400005F8016BCBEB0506564502460B46D3D159
:10555000DDF8189010461946FCF7CAFF06460F46BC
:1055600002460B46DDE9040102F0F0F940B9DDE93D
:10557000040132463B4602F0DFF988B1E3070FD55C
:1055800015F8014C6B1E089A04E09A4200F02C8436
:1055900013F8014D392C03F10105F6D001341C70CC
:1055A0000999484601F04CF90022039B2A70249A7D
:1055B00001331360269B002B00F0A88308981D6020
:1055C00019B0BDE8F08F0A9A002A00F01281229AE1
:1055D000012A40F35A82079B0B9A5F1EBA42C0F21F
:1055E0009883D71B079B002BC0F28C84069D079BDA
:1055F000069A01211A440692049A48461A440492D3
:1056000001F0B6F9064665B1049900290B4608DD9C
:10561000A942A8BF2B46069AED1AD21ACB1A0692B7
:1056200004930B9B002B40F3FD820A9A002A00F0A2
:105630000382002F00F0008231463A46484601F0CE
:105640003FFADDF82480014642460646484601F00E
:1056500099F941460446484601F0F2F80B9BDB1BE2
:105660000B9340F0E8810121484601F081F90C9B41
:105670008046002B00F01B8201461A46484601F086
:105680001FFA229B8046012B40F3F9820027D8F8AD
:10569000103008EB8303186901F01CF9C0F12000F9
:1056A000049A104410F01F0000F0F881C0F12003AC
:1056B000042B40F3CB84069BC0F11C0003440693EB
:1056C0001346034405440493069B002B05DD214645
:1056D0001A46484601F044FA0446049B002B05DDB7
:1056E00041461A46484601F03BFA80460D9B002B86
:1056F00040F07D82079B002B40F396820A9B002B93
:1057000040F0F681DDF820A0079F554604E02146D1
:10571000484601F09FF8044641462046FFF7E6FC64
:10572000303005F8010BCAEB0503BB424FF00A020B
:105730004FF00003EBDB089B079A8246012AACBFBF
:105740009B1801331D464FF0000B214601224846AD
:1057500001F006FA4146099001F058FA002840F39A
:105760000E8315F8012C6B1E089904E08B4200F0A3
:10577000798213F8012D392A03F10105F6D001329F
:105780001A704146484601F05BF8002E3FF408AF1E
:10579000BBF1000F05D0B34503D05946484601F090
:1057A0004FF83146484601F04BF8F9E601230D93D6
:1057B000EAE5DDF80C804046FCF7E6FF02460B46C2
:1057C0003046394602F0B8F800287FF4C9AD08F138
:1057D000FF330393C4E5069A039BD21A5B420B93F3
:1057E000002306920C93E1E55B42069300230493A9
:1057F000D1E50B9F069D0A9E05E7C3F120080AFA32
:1058000008F07AE50D90BFE50000244000230A93DC
:10581000039B239A13440E930133002B079340F309
:105820008582079C26460021172EC9F844100BD903
:10583000012204235B0003F11400B042114602F17F
:105840000102F7D9C9F84410484600F0D1FF0E2CE8
:105850000890C9F840003FF6E8AD002D3FF4E5ADF3
:105860005746D8460399CDE91078002940F3938232
:10587000924B01F00F020E1103EBC203F006D3E9C5
:10588000004540F14E828E4B5046D3E908235946DD
:10589000FDF70AF982468B4606F00F064FF0030823
:1058A00086B1874FF10709D5D7E90023204629465D
:1058B000FCF7D0FF04460D4608F10108761007F109
:1058C0000807EFD122462B4650465946FDF7ECF823
:1058D00006460F460D9B43B100227A4B30463946AF
:1058E00002F034F8002840F023834046FCF74CFFD8
:1058F00032463B46FCF7AEFF734B0022FCF7F8FD47
:10590000079B0446A1F15075002B00F0E181039B39
:105910001393079B12930A9B002B00F09882129A14
:10592000664B002003EBC20353E902236749FDF7EE
:10593000BBF822462B46FCF7D9FD82468B46304603
:10594000394602F041F80446FCF71EFF02460B46BA
:1059500030463946FCF7CAFD3034089DE4B20646AD
:105960000F462C7002460B4650465946013502F050
:105970000BF800284ED132463B4600205149FCF737
:10598000B5FD02460B465046594601F0FDFF002882
:1059900040F00E83129A012A40F3B481129B089AB8
:1059A000134498460FE032463B4600204549FCF739
:1059B0009DFD52465B4601F0C9FF002840F0F88289
:1059C000454500F09F81504659460022404BFCF768
:1059D00041FF00223E4B82468B4630463946FCF75B
:1059E00039FF0F46064601F0EFFF0446FCF7CCFEF8
:1059F00002460B4630463946FCF778FD3034E4B2B7
:105A000005F8014B52465B4606460F4601F09EFFE5
:105A10000028C8D0139B0393C2E500230A93239B5D
:105A2000002B40F388811E461C460E930793FAE62E
:105A300001230A93F3E709940B9A0999484601F068
:105A40003FF804460FE6079B002B3FF700AD40F000
:105A5000D982DDE9040100221E4BFCF7FBFE524611
:105A60005B4601F087FFDDF81C804646002800F009
:105A7000F180239B089DDB4303934146484600F099
:105A8000DFFE002E3FF48CAD8BE60F9A002A00F06B
:105A9000418203F233430B9F069DA9E51C20069B20
:105AA000054403440693049B034404930CE6229BA1
:105AB000012B40F381820C9F0120F1E5F08000086A
:105AC000C88100080000F03F00001C400000E03FDB
:105AD0000000244000001440314600230A224846BA
